:020000040800F2
:1000000000200020C50B0008610B0008630B0008EE
:10001000650B0008670B0008690B00080000000072
:100020000000000000000000000000006B0B000852
:100030006D0B0008000000006F0B0008710B00083A
:100040000D0C00080D0C00080D0C00080D0C00082C
:100050000D0C00080D0C00080D0C00080D0C00081C
:100060000D0C00080D0C00080D0C00080D0C00080C
:100070000D0C00080D0C00080D0C00080D0C0008FC
:100080000D0C00080D0C00080D0C0008000000000D
:100090000000000000000000000000000D0C00083F
:1000A0000D0C00080D0C00080D0C00080D0C0008CC
:1000B0000D0C00080D0C00080D0C00080D0C0008BC
:1000C0000D0C000800000000000000000D0C0008EE
:1000D0000D0C00080D0C00080D0C00080D0C00089C
:1000E0000D0C00080D0C00080D0C000800000000AD
:1000F0000000000000000000000000000000000000
:1001000000000000000000000000000000000000EF
:1001100000000000000000000D0C00080D0C00089D
:1001200000000000000000000000000000000000CF
:1001300000000000000000000000000000000000BF
:1001400000000000000000000000000000000000AF
:10015000000000000000000000000000000000009F
:10016000000000000000000000000000000000008F
:10017000000000000000000000000000000000007F
:10018000000000000000000000000000000000006F
:10019000000000000000000000000000000000005F
:1001A000000000000000000000000000000000004F
:1001B000000000000000000000000000000000003F
:1001C0000000000000000000000000005FF808F1DF
:1001D00010B5054C237833B9044B13B10448AFF381
:1001E00000800123237010BD0C00002000000000DF
:1001F000680C000808B5034B1BB103490348AFF373
:10020000008008BD0000000010000020680C0008FD
:1002100038B50E4B054618784FF47A73B3FBF0F3FC
:100220000B4A1068B0FBF3F000F08CF8044658B9A4
:100230000F2D09D8024629464FF0FF3000F04EF846
:10024000044B20461D6038BD012038BD0000002051
:10025000080000200400002008B5032000F02CF85E
:100260000020FFF7D5FF00F059FC002008BD00007A
:10027000034A044B11681B780B441360704700BF9E
:100280002800002000000020014B1868704700BFC4
:100290002800002038B50446FFF7F6FF0546631C2A
:1002A0001EBF044B1B78E418FFF7EEFF401B84428F
:1002B000FAD838BD00000020074A0002D36800F4D5
:1002C000E06023F4E0631B041B0C43F0BF6343F4C2
:1002D00000330343D360704700ED00E0174B30B5A7
:1002E000DC68C4F30224C4F10703251D042B28BFD6
:1002F0000423062D4FF0010598BF002405FA03F3EF
:1003000003F1FF3388BF033C1940A14005FA04F410
:10031000013C2240002842EA01024FEA0212AFBF2C
:1003200000F16040064B00F00F00D2B2A5BFD2B280
:1003300000F561401A5480F8002330BD00ED00E064
:1003400014ED00E00138B0F1807F0AD2F021064BB5
:10035000064A586082F823100020072298601A602D
:1003600070470120704700BF10E000E000ED00E0A2
:100370002DE9F74F00221646654BDFF8A4E1DFF8C0
:10038000A4C14FF001080C6808FA06F808EA040452
:10039000A0457FD14D68122D00F0AF8000F288801B
:1003A000022D00F0A7807CD8002D00F08E80012D5A
:1003B00000F09E804FF00F09FF2C93BF824606F19C
:1003C0008045083DD0F800B092BFB500D0F804B029
:1003D000AD0009FA05F82BEA080802FA05F588BF0E
:1003E00000F1040A48EA0505CAF80050D1F804A053
:1003F0001AF0805F4ED0474D464FAD6926F0030896
:1004000045F00105BD61BD6908F1804805F00105B1
:10041000019508F5803806F0030B019D4FEA8B0B20
:10042000D8F8085009FA0BF925EA09093A4DA8420B
:1004300068D005F58065A84266D005F58065A842BC
:1004400064D005F58065A8420CBF0325042505FA94
:100450000BF545EA0905C8F808501D681AF4803FF5
:1004600014BF2543A5431D605D681AF4003F14BF07
:100470002543A5435D609D681AF4801F14BF254382
:10048000A5439D60DD681AF4001F14BF2C4325EAC4
:100490000404DC600136102E7FF473AF03B0BDE8B6
:1004A000F08F032D22D0112D84D1CA68043281E748
:1004B0001A4FBD4209D012D8DFF86C904D4504D0D8
:1004C00009F580394D457FF475AF8A68C2B1012ABC
:1004D0000CBFC0F81080C0F8148008226AE7754588
:1004E000F3D06545F1D0DFF84490EBE7002261E7F7
:1004F000CA685FE7CA6808325CE7CA680C3259E725
:10050000042257E70025A2E70125A0E702259EE780
:1005100000040140001002400008014000002110CA
:1005200000003110000032100000111000002210F5
:100530008368194214BF0120002070470AB101618D
:1005400070470904FBE7C3685940C1607047000069
:1005500003682DE9F341DB07054610D42B689F079C
:100560005ED42B68190700F195802B685A0700F1BB
:10057000BF80EA69002A40F02D81002014E0904CF1
:10058000636803F00C03042B07D0636803F00C03CB
:10059000082B0CD16368DE0309D523689C03DDD5E5
:1005A0006B68002BDAD1012002B0BDE8F0816B68E6
:1005B000B3F5803F10D1236843F480332360FFF705
:1005C00063FE064623689803C8D4FFF75DFE801BD0
:1005D0006428F7D90320E7E79BB9236823F4803325
:1005E0002360236823F480232360FFF74DFE064633
:1005F00023689903B2D5FFF747FE801B6428F7D91B
:10060000E8E7B3F5A02F236803D143F480232360E8
:10061000D1E723F480332360236823F48023CDE7DC
:10062000674C636813F00C0F07D0636803F00C038A
:10063000082B10D16368DA030DD423689B0702D519
:100640002B69012BAFD123686A6923F0F80343EAD1
:10065000C203236085E72A695A4B6AB101221A60F6
:10066000FFF712FE064623689F07ECD4FFF70CFE47
:10067000801B0228F7D9ADE71A60FFF705FE064692
:10068000236898077FF56DAFFFF7FEFD801B0228FA
:10069000F6D99FE7AA694A4C4B4BDAB101221A609E
:1006A000FFF7F2FD0646636A9B070DD54FF4FA5239
:1006B000464B1B68B3FBF2F3019300BF019B5A1E2C
:1006C0000192002BF9D150E7FFF7DEFD801B0228D5
:1006D000E9D97FE71A60FFF7D7FD0646636A9F07EF
:1006E0007FF543AFFFF7D0FD801B0228F6D971E7F5
:1006F000334CE369D80024D40127E36943F08053E5
:10070000E361E36903F080530093009B304E33684C
:10071000D90518D5EB68012B26D1236A43F00103D4
:100720002362FFF7B1FD41F288368046236A9B07BA
:100730003FD5002F3FF41DAFE36923F08053E36101
:1007400017E70027E2E7336843F480733360FFF76D
:100750009BFD80463368DA05DCD4FFF795FDA0EBFE
:1007600008006428F6D935E7ABB9236A41F2883826
:1007700023F001032362236A23F004032362FFF7BB
:1007800083FD0646236A9807D3D5FFF77DFD801BBE
:100790004045F7D91EE7052B236A03D143F0040334
:1007A0002362BAE723F001032362236A23F00403E0
:1007B000B6E7FFF769FDA0EB0800B042B6D909E73C
:1007C0000010024000004242800442420800002023
:1007D00000700040224C636803F00C03082B3FF4C8
:1007E000E2AE00231F4E022A33602BD1FFF74CFDEF
:1007F0000746236899011FD42B6AB3F5803F05D1C2
:10080000E26AA96822F00F020A43E262696A62683A
:100810000B4322F474121343636001233360FFF728
:1008200033FD054623689A013FF5A7AEFFF72CFD7F
:10083000401B0228F6D9CDE6FFF726FDC01B022893
:10084000D7D9C7E6FFF720FD054623689B017FF552
:1008500094AEFFF719FD401B0228F6D9BAE600BF97
:10086000001002406000424230B589B06C461B4B1C
:1008700003F11005224618685968083303C2AB42D9
:100880001446F7D1164B04AC03F110052246186844
:100890005968083303C2AB421446F7D111494B687B
:1008A00003F00C02082A17D1C3F3834208A80244BC
:1008B000DB0312F8202C0CD5CB6A0B4803F00F0396
:1008C000504308AA134413F8103CB0FBF3F009B0EE
:1008D00030BD06485043FAE70348F8E7800C0008AB
:1008E000900C00080010024000127A0000093D0040
:1008F0000268F8B512F0020F05463C4C11D05707BC
:1009000042BF636843F4E0636360160742BF6368F5
:1009100043F4605363606368816823F0F0030B4322
:100920006360D0071AD42A68510756D4130706D536
:1009300063682A6923F4605343EAC2036360FFF7E4
:1009400093FF63682A4AC3F30313D35CD840294B4F
:1009500018600020FFF75CFC0020F8BD6868236881
:10096000012802D19A0305D4F8BD02281BD113F047
:10097000007F39D0636841F2883723F003031843BE
:100980006060FFF781FC6B680646012B0ED163683F
:1009900003F00C03042BC6D0FFF776FC801BB84293
:1009A000F5D90320F8BD13F0020FE2E7022B0FD1B7
:1009B000636803F00C03082BB5D0FFF765FC801BC0
:1009C000B842F5D9EDE7FFF75FFC801BB842E8D8E5
:1009D000636813F00C0FF6D1A5E76368E96823F4A8
:1009E000E0630B436360A1E70120F8BD0010024003
:1009F000A00C00080800002000B591B028220021BA
:100A000006A800F029F91422002101A800F024F919
:100A10000223069301230A93102306A80B93FFF7E2
:100A200097FD00210F2301A80193029103910491E6
:100A30000591FFF75DFF11B05DF804FB30B589B09B
:100A4000FFF70AFCFFF7D8FF102200240125002140
:100A50000DEB020000F000F92D4B4FF440719A6944
:100A60002C4842F010029A619A6902F01002019239
:100A7000019A9A6942F020029A619A6902F0200272
:100A80000292029A9A6942F004029A619B690022DA
:100A900003F004030393039BFFF750FD04A91E48D2
:100AA000049505940694FFF763FC4FF44073049398
:100AB000022304A91748059506940793FFF758FCED
:100AC00004F18044144D04F5883401212846FFF7D1
:100AD0002FFD80B94FF400712046FFF734FD6420EC
:100AE000FFF7D8FB20464FF48071FFF72CFD642000
:100AF000FFF7D0FBE9E7204600224FF48071FFF7B3
:100B00001DFD00224FF480712046FFF717FDDCE742
:100B10000010024000100140000801400E4B82B05E
:100B20009A6942F001029A619A6902F00102009208
:100B3000009ADA6942F08052DA61DB69074A03F011
:100B400080530193019B536823F0E06343F00073EB
:100B5000536002B0704700BF001002400000014027
:100B60007047FEE7FEE7FEE7FEE770477047704715
:100B7000FFF77EBB104B1A6842F001021A605968F9
:100B80000E4A0A405A601A6822F0847222F48032B7
:100B90001A601A6822F480221A605A6822F4FE024F
:100BA0005A604FF41F029A600022DA624FF000622E
:100BB000034B9A60704700BF001002400000FFF82E
:100BC00000ED00E0002103E00B4B5B584350043183
:100BD0000A480B4B42189A42F6D30A4A02E0002315
:100BE00042F8043B084B9A42F9D3FFF7C3FF00F0E9
:100BF0000FF8FFF723FF7047B80C00080000002033
:100C00000C0000200C0000202C000020FEE700005B
:100C100070B500250C4E0D4CA41BA410A54209D1A3
:100C200000F022F800250A4E0A4CA41BA410A5428D
:100C300005D170BD56F8253098470135EEE756F8D6
:100C4000253098470135F2E7B00C0008B00C0008D9
:100C5000B00C0008B40C000803460244934200D1D3
:100C6000704703F8011BF9E7F8B500BFF8BC08BCF2
:100C70009E467047F8B500BFF8BC08BC9E4670475A
:100C800002030405060708090A0B0C0D0E0F1010CD
:100C90000102030405060708090A0B0C0D0E0F10CC
:100CA000000000000000000001020304060708091C
:040CB000F501000842
:040CB400D101000862
:0C0CB800010000001000000000366E017A
:0400000508000BC51F
:00000001FF
